:1000000012C02CC02BC02AC029C028C027C026C0BF
:1000100025C024C023C022C021C020C01FC01EC0D4
:100020001DC01CC01BC011241FBECFE5D4E0DEBF25
:10003000CDBF10E0A0E6B0E0E6EBFCE002C005902A
:100040000D92A436B107D9F710E0A4E6B0E001C0E4
:100050001D92A237B107E1F71BD0C5C5D1CF83E30D
:1000600089B910BC88E18AB986E880BD08955D9B96
:10007000FECF8CB9089520E004C05D9BFECFECB9A3
:100080002F5FFC01E20FF11DE081EE23B1F708952F
:100090002F923F924F925F926F927F928F929F9298
:1000A000BF92CF92DF92EF92FF920F931F93DF9355
:1000B000CF93CDB7DEB766970FB6F894DEBF0FBE0D
:1000C000CDBF83E389B910BC88E18AB986E880BDD9
:1000D0001A8219821C821B821E821D8218861F8230
:1000E0001A8619861C861B867894C4D284EF91E008
:1000F00028EC30E0F9013197F1F70197D9F749E0A1
:10010000242E312C2C0E3D1E3BE0432E512C4C0E48
:100110005D1E3E010894611C711C2DE0C22ED12C85
:10012000CC0EDD1E90E2B92E88EC882E912CC301F6
:10013000BE016D5F7F4FAE014B5F5F4F9E01295F38
:100140003F4F81017201E5D069817A81882777FD6F
:100150008095982FA6012AE030E047D55D9BFECF21
:10016000BCB8C60188DF5D9BFECFBCB86B817C81CB
:10017000882777FD8095982FA6012AE030E035D5B5
:100180005D9BFECFBCB8C60176DF5D9BFECFBCB8E1
:100190006D817E81882777FD8095982FA6012AE0C2
:1001A00030E023D55D9BFECFBCB8C60164DF5D9B0C
:1001B000FECFBCB86F817885882777FD8095982F12
:1001C000A6012AE030E011D55D9BFECFBCB8C60188
:1001D00052DF5D9BFECFBCB869857A85882777FDA5
:1001E0008095982FA6012AE030E0FFD45D9BFECFDA
:1001F000BCB8C60140DF5D9BFECFBCB86B857C857B
:10020000882777FD8095982FA6012AE030E0EDD46D
:100210005D9BFECFBCB8C6012EDF5D9BFECFBCB898
:1002200080E690E028DF84EF91E0F4013197F1F768
:100230000197D9F77CCFEF92FF920F931F93CF9343
:10024000DF93182FE62E042FF52E662381F080ED24
:10025000AED2812F2AD3802F9F2D9C01E90110E07F
:1002600003C0899122D31F5F1E15D8F311D3DF91EC
:10027000CF911F910F91FF90EF900895DF93CF934F
:100280000F92CDB7DEB7698361E0AE014F5F5F4F7C
:10029000D2DF0F90CF91DF910895DF92EF92FF921E
:1002A0000F931F93CF93DF93182FD62E042FF52E85
:1002B000662311F410E024C080ED79D2812FF5D2AD
:1002C0008AE18A95F1F781ED72D2802F9F2D9C01F2
:1002D0008901C0E0D0E0ED2CFF240894E108F1088A
:1002E0000BC0CE15DF0511F410D301C0F9D2F8010F
:1002F000808321960F5F1F4FCD1598F31D2DC8D217
:10030000812FDF91CF911F910F91FF90EF90DF90A0
:1003100008956F927F928F929F92AF92BF92CF92E9
:10032000DF92EF92FF920F931F936C015B014A01E2
:1003300039018BE36EE044E650E0AFDF40916400AA
:1003400020916500942F80E030E0822B932BF60102
:10035000918380834091660020916700942F80E014
:1003600030E0822B932BF5019183808340916800CC
:1003700020916900942F80E030E0822B932BF401D0
:100380009183808340916C0020916D00942F80E0D8
:1003900030E0822B932BF3019183808340916E0098
:1003A00020916F00942F80E030E0822B932BF80196
:1003B000918380834091700020917100942F80E0A0
:1003C00030E0822B932BF701918380831F910F9153
:1003D000FF90EF90DF90CF90BF90AF909F908F9065
:1003E0007F906F9008952F923F924F925F926F92FD
:1003F0007F928F929F92AF92BF92CF92DF92EF92B5
:10040000FF920F931F93DF93CF93CDB7DEB72C9757
:100410000FB6F894DEBF0FBECDBF6C015B014A0181
:100420003901280117011A8219821C821B821E823F
:100430001D8218861F821A8619861C861B86CE018D
:100440000196BE016D5F7F4FAE014B5F5F4F9E0116
:10045000295F3F4F8E01075F1F4FEBE0EE2EF12C1F
:10046000EC0EFD1E56DF69817A81882777FD809525
:10047000982FCAD220E030E040E858E351D3F6018B
:1004800060837183828393836B817C81882777FD6E
:100490008095982FB9D220E030E040E858E340D36F
:1004A000F50160837183828393836D817E818827C8
:1004B00077FD8095982FA8D220E030E040E858E3FF
:1004C0002FD3F40160837183828393836F81788556
:1004D000665D7F4F882777FD8095982F95D223E31F
:1004E00033E343E851E426D2F301608371838283CE
:1004F000938369857A8569507040882777FD809558
:10050000982F82D223E333E343E851E413D2F2017C
:1005100060837183828393836B857C85635E7F4F69
:10052000882777FD8095982F6FD223E333E343E844
:1005300051E400D2F10160837183828393832C960E
:100540000FB6F894DEBF0FBECDBFCF91DF911F91E4
:100550000F91FF90EF90DF90CF90BF90AF909F9062
:100560008F907F906F905F904F903F902F90089565
:10057000AB0161E092DE0895FF920F931F93DF932A
:10058000CF930F92CDB7DEB7F82E062F142FBE01F2
:100590006F5F7F4FEDDF2981112351F081E090E003
:1005A00002C0880F991F0A95E2F7622F682B0AC0D4
:1005B00081E090E002C0880F991F0A95E2F7682F4A
:1005C0006095622369838F2D59DE0F90CF91DF9163
:1005D0001F910F91FF9008958BE666E041E0CCDF1C
:1005E00008958BE666E040E0C7DF0895EF92FF9242
:1005F0000F931F93DF93CF930F92CDB7DEB7E82E03
:10060000062F142FF22E442369F11982BE016F5F69
:100610007F4FAEDF882331F1212F30E0402F50E0B3
:100620004F5F5F4F421B530B81E090E002C0880F89
:10063000991F1A95E2F70197042E02C0880F991F9F
:100640000A94E2F72F2D30E002C0220F331F4A95A3
:10065000E2F7682F6095498164238223682B6983C0
:100660008E2D0CDE0F90CF91DF911F910F91FF9097
:10067000EF90089598D08AE18A95F1F788EE93E09B
:1006800028EC30E0F9013197F1F70197D9F7A9DFAC
:1006900080E29EE40197F1F78BE662E043E021E01F
:1006A000A5DF8AE162E043E023E0A0DF89E164E0C6
:1006B000E5DD8BE164E042E023E098DF8CE164E07B
:1006C00042E020E093DF0895FF920F931F93DF93A2
:1006D000CF930F92CDB7DEB7F62E8A01BE016F5FC2
:1006E0007F4F46DF21E030E002C0220F331FFA9433
:1006F000E2F799819223F80190830F90CF91DF91D7
:100700001F910F91FF900895EF92FF920F931F9307
:10071000DF93CF930F92CDB7DEB7062F142F790159
:10072000442311F460E028C0BE016F5F7F4F20DFDB
:10073000682F882309F1812F90E0402F50E04F5F10
:100740005F4F481B590B21E030E002C0220F331FDE
:100750001A95E2F721503040042E02C0220F331FB9
:100760000A94E2F78981822390E002C095958795EB
:100770004A95E2F7F7018083862F0F90CF91DF91A2
:100780001F910F91FF90EF90089585E766E046E096
:1007900024E630E0B9DF8091640090E0843309F40E
:1007A00091E0892F089511B880E280B90895282F2B
:1007B00084EA86BF8FEF90E0A0E0B0E006B607FEC7
:1007C00005C00097A105B10549F104C00197A10931
:1007D000B109A0F781B1887F883011F08031F1F440
:1007E00023B984E886BF8FEF90E0A0E0B0E006B6C2
:1007F00007FE05C00097A105B10581F004C001976F
:10080000A109B109A0F791B1987F983111F480E066
:10081000089580E0903419F081E0089581E0089512
:1008200064EA54E844E966BF20E030E006B607FC1D
:1008300006C02F5F3F4F91E020303907B9F791B1E3
:10084000987F983011F0903171F783B956BF20E04E
:1008500030E006B607FC06C02F5F3F4F91E0203026
:100860003907B9F791B1987F903211F0983569F452
:1008700046BF20E030E006B604FED5CF2F5F3F4FE5
:1008800091E020303907B9F7CECF089590DF089571
:1008900084E986BF80E090E006B604FE05C00196BC
:1008A00021E080309207C1F7089583B984E886BFBC
:1008B0008FEF90E0A0E0B0E006B607FE05C000971D
:1008C000A105B10551F004C00197A109B109A0F734
:1008D00081B190E0887F883209F091E0892F0895F6
:1008E00084EC86BF8FEF90E0A0E0B0E006B607FE94
:1008F00006C00097A105B10531F480E00895019785
:10090000A109B10998F783B1089584E886BF8FEFF4
:1009100090E0A0E0B0E006B607FE06C00097A10593
:10092000B10531F480E008950197A109B10998F764
:1009300083B108950CD0BAC0B2D040F0A9D030F045
:1009400021F45F3F19F09BC05111E4C09EC0BFD09D
:1009500098F39923C9F35523B1F3951B550BBB2786
:10096000AA2762177307840738F09F5F5F4F220F33
:10097000331F441FAA1FA9F333D00E2E3AF0E0E82C
:1009800030D091505040E695001CCAF729D0FE2F78
:1009900027D0660F771F881FBB1F2617370748070A
:1009A000AB07B0E809F0BB0B802DBF01FF279358C0
:1009B0005F4F2AF09E3F510568F061C0ABC05F3FBA
:1009C000ECF3983EDCF3869577956795B795F795A8
:1009D0009F5FC9F7880F911D9695879597F90895A0
:1009E000E1E0660F771F881FBB1F6217730784073C
:1009F000BA0720F0621B730B840BBA0BEE1F88F74B
:100A0000E0950895E89409C097FB3EF49095809591
:100A1000709561957F4F8F4F9F4F9923A9F0F92FC4
:100A200096E9BB279395F695879577956795B79542
:100A3000F111F8CFFAF4BB0F11F460FF1BC06F5F28
:100A40007F4F8F4F9F4F16C0882311F096E911C03A
:100A5000772321F09EE8872F762F05C0662371F05B
:100A600096E8862F70E060E02AF09A95660F771F6F
:100A7000881FDAF7880F9695879597F9089597F963
:100A80009F6780E870E060E008959FEF80EC089534
:100A900000240A941616170618060906089500245D
:100AA0000A9412161306140605060895092E0394D7
:100AB000000C11F4882352F0BB0F40F4BF2B11F44B
:100AC00060FF04C06F5F7F4F8F4F9F4F089557FDAA
:100AD0009058440F551F59F05F3F71F04795880FAC
:100AE00097FB991F61F09F3F79F087950895121643
:100AF00013061406551FF2CF4695F1DF08C01616EF
:100B000017061806991FF1CF86957105610508949F
:100B10000895E894BB2766277727CB0197F90895B6
:100B20000BD0C4CFB5DF28F0BADF18F0952309F059
:100B3000A6CFABCF1124EECFCADFA0F3959FD1F3A0
:100B4000950F50E0551F629FF001729FBB27F00D7B
:100B5000B11D639FAA27F00DB11DAA1F649F6627D0
:100B6000B00DA11D661F829F2227B00DA11D621F1F
:100B7000739FB00DA11D621F839FA00D611D221FD9
:100B8000749F3327A00D611D231F849F600D211DBD
:100B9000822F762F6A2F11249F5750408AF0E1F060
:100BA00088234AF0EE0FFF1FBB1F661F771F881FA9
:100BB00091505040A9F79E3F510570F060CFAACFE9
:100BC0005F3FECF3983EDCF3869577956795B79594
:100BD000F795E7959F5FC1F7FE2B880F911D9695BE
:100BE000879597F90895F89464C0FA01CF93FF931D
:100BF000EF9322303CF125322CF5C22FE894CA3015
:100C000049F497FB3EF490958095709561957F4FE0
:100C10008F4F9F4F2C2F332744275527FF93EF9358
:100C200026D0EF91FF91605D6A330CF0695D6193AE
:100C3000B901CA01605070408040904059F716F4E5
:100C4000CDE2C19310828F919F91CF9100C0DC01C2
:100C5000FC01672F71917723E1F7329704C07C91F3
:100C60006D9370836291AE17BF07C8F30895A1E238
:100C70001A2EAA1BBB1BFD010DC0AA1FBB1FEE1F16
:100C8000FF1FA217B307E407F50720F0A21BB30B61
:100C9000E40BF50B661F771F881F991F1A9469F7DD
:100CA00060957095809590959B01AC01BD01CF0139
:060CB0000895F894FFCF47
:040CB6000D0A000023
:00000001FF
