:1000000021C042C464C42EC02DC02CC02BC02AC045
:1000100029C028C027C026C025C024C023C022C0B4
:1000200021C020C01FC005A84CCDB2D44EB938366F
:10003000A9020C50B9918688083CA6AAAA2ABE003B
:100040000000803F11241FBECFE5D4E0DEBFCDBF4E
:1000500011E0A0E6B0E001C01D92A831B107E1F7C0
:1000600059D41BC8CDCF84E088BB0000000000003D
:1000700018BA089584E088BB00000000000000006A
:100080000000000018BA08950F931F9302E610E0D5
:10009000FC01EE0FFF1FE80FF91FDF01AA0FBB1FC6
:1000A000A00FB11F11967C936E933196EE0FFF1F38
:1000B0000E0F1F1FF8015183408315963C932E931A
:1000C00014971F910F910895DF92EF92FF920F9373
:1000D0001F93CF93DF93F89432E6E32E30E0F32EB4
:1000E00024E0D22E50C0D595C795F7018281938127
:1000F0008C239D23892B31F4D8BA00000000000026
:1001000018BA01C0B7DF0F5F1F4F0830110559F74C
:1001100000E010E0C0E0D1E0D595C795F7018081FF
:1001200091818C239D23892B31F4D8BA00000000E3
:10013000000018BA01C09EDF0F5F1F4F0830110585
:1001400059F700E010E0C0E0D1E0D595C795F70180
:10015000848195818C239D23892B31F4D8BA0000AA
:100160000000000018BA01C085DF0F5F1F4F083084
:10017000110559F786E090E0E80EF91E96E1E916C0
:1001800091E0F90629F000E010E0C0E0D1E0ABCF4B
:100190007894DF91CF911F910F91FF90EF90DF90B6
:1001A00008952F923F924F925F926F927F928F921B
:1001B0009F92AF92BF92CF92DF92EF92FF920F93F6
:1001C0001F93DF93CF9300D000D0CDB7DEB79A83D3
:1001D00089831B012A0182E690E09C838B8339018D
:1001E000882477FC8094982C89819A81EB81FC810A
:1001F00091838083338222825582448265DFC401E9
:10020000B3018AD55B016C0120E030E04AEF54E491
:1002100037D67B018C0120E030E040E85FE3DDD49D
:1002200088231CF461E070E01FC0C801B70120E022
:100230003FEF4FE757E420D618169CF4C601B501EE
:1002400020E030E040E251E41BD638D506C088EC0F
:1002500090E00197F1F76150704061157105B9F7B1
:1002600006C0C801B7012AD5CB010197F1F7EB8190
:10027000FC813696FC83EB83E651F14009F0B4CF64
:100280000F900F900F900F90CF91DF911F910F91D2
:10029000FF90EF90DF90CF90BF90AF909F908F90A6
:1002A0007F906F905F904F903F902F9008952F9286
:1002B0003F924F925F926F927F928F929F92AF92F6
:1002C000BF92CF92DF92EF92FF920F931F93DF9333
:1002D000CF9300D000D0CDB7DEB79A8389831B01BE
:1002E0002A0180E191E09C838B833901882477FC8B
:1002F0008094982C89819A81EB81FC819183808301
:100300003382228255824482DFDEC401B30104D5E8
:100310005B016C0120E030E04AEF54E4B1D57B0191
:100320008C0120E030E040E85FE357D488231CF4E0
:1003300061E070E01FC0C801B70120E03FEF4FE768
:1003400057E49AD518169CF4C601B50120E030E0B8
:1003500040E251E495D5B2D406C088EC90E0019714
:10036000F1F76150704061157105B9F706C0C80119
:10037000B701A4D4CB010197F1F7EB81FC8136974B
:10038000FC83EB83EC55F04009F0B4CF0F900F9055
:100390000F900F90CF91DF911F910F91FF90EF90F1
:1003A000DF90CF90BF90AF909F908F907F906F9095
:1003B0005F904F903F902F9008952F923F924F92D1
:1003C0005F926F927F928F929F92AF92BF92CF92E5
:1003D000DF92EF92FF920F931F93DF93CF9300D0A2
:1003E00000D000D0CDB7DEB79A8389837C836B833E
:1003F0001A0182E690E09E838D8388249924290146
:10040000662457FC6094762C0BC0ED81FE8111822E
:10041000108213821282158214823696FE83ED8337
:1004200089819A81ED81FE81918380838B819C817A
:10043000938382833582248247DEC301B2016CD468
:100440005B016C0120E030E04AEF54E419D57B01F8
:100450008C0120E030E040E85FE3BFD388231CF448
:1004600061E070E01FC0C801B70120E03FEF4FE737
:1004700057E402D518169CF4C601B50120E030E01F
:1004800040E251E4FDD41AD406C088EC90E0019714
:10049000F1F76150704061157105B9F706C0C801E8
:1004A000B7010CD4CB010197F1F70894811C911C82
:1004B0009EE18916910409F0A8CF109211011092C3
:1004C0001001109213011092120110921501109256
:1004D0001401FADDC601B50120E030E04AEF54E432
:1004E000CFD47B018C0120E030E040E85FE375D39E
:1004F00088231CF461E070E020C0C801B70120E04F
:100500003FEF4FE757E4B8D41816A4F4C601B5017D
:1005100020E030E040E251E4B3D4D0D388EC90E066
:1005200005C0FC013197F1F761507040611571050C
:10053000C1F706C0C801B701C1D3CB010197F1F7DC
:1005400026960FB6F894DEBF0FBECDBFCF91DF91D8
:100550001F910F91FF90EF90DF90CF90BF90AF90E1
:100560009F908F907F906F905F904F903F902F90D3
:1005700008952F923F924F925F926F927F928F9247
:100580009F92AF92BF92CF92DF92EF92FF920F9322
:100590001F93DF93CF93CDB7DEB7A0970FB6F89434
:1005A000DEBF0FBECDBF7B016A013C8B2B8B1E8B48
:1005B0000D8BB8014BD5882777FD8095982FACD34C
:1005C0006D877E878F87988BC701B8013FD58827B5
:1005D00077FD8095982FA0D369877A878B879C8732
:1005E000C601B80133D5882777FD8095982F94D31D
:1005F0006D837E838F83988780E090E0A0E0B0E0F9
:1006000089839A83AB83BC831C012D013C014D017E
:1006100018A21F8E8B899C89AA2797FDA095BA2FB7
:100620008B8F9C8FAD8FBE8F76C069817A818B81D5
:100630009C813FD37093750060937400C201B10137
:1006400038D37093770060937600C401B30131D33F
:10065000709379006093780037DD6B8D7C8D8D8D84
:100660009E8D5AD35B016C0120E030E04AEF54E4E8
:1006700007D47B018C0120E030E040E85FE3ADD29D
:1006800088231CF461E070E01FC0C801B70120E0BE
:100690003FEF4FE757E4F0D318169CF4C601B501BD
:1006A00020E030E040E251E4EBD308D306C088EC10
:1006B00090E00197F1F76150704061157105B9F74D
:1006C00006C0C801B701FAD2CB010197F1F76981E1
:1006D0007A818B819C812D853E854F85588919D2E1
:1006E00069837A838B839C83C201B10129853A8512
:1006F0004B855C850ED21B012C01C401B3012D81F9
:100700003E814F81588505D23B014C01AF8DB8A188
:100710001196B8A3AF8FEF8DF8A12D893E89E2170E
:10072000F3070CF482CF18A21F8E8B899C89AA270D
:1007300097FDA095BA2F8F8B988FA98FBA8F83C002
:1007400069817A818B819C81B4D2709375006093AA
:100750007400C201B101ADD270937700609376004E
:10076000C401B301A6D27093790060937800A09180
:100770001601B0911701BA8BA98BA6DC6F89788D11
:10078000898D9A8DC9D25B016C0120E030E04AEF7F
:1007900054E476D37B018C0120E030E040E85FE355
:1007A0001CD288231CF461E070E01FC0C801B701AF
:1007B00020E03FEF4FE757E45FD318169CF4C601E3
:1007C000B50120E030E040E251E45AD377D206C0D0
:1007D00088EC90E00197F1F7615070406115710568
:1007E000B9F706C0C801B70169D2CB010197F1F78B
:1007F000E989FA89BF01882777FD8095982F8CD2E7
:100800009B01AC0169817A818B819C8181D1698353
:100810007A838B839C83C201B10129853A854B85FC
:100820005C8576D11B012C01C401B3012D813E8171
:100830004F8158856DD13B014C012F8D38A12F5F21
:100840003F4F38A32F8F8F8D98A1AD89BE898A170E
:100850009B070CF475CFA0960FB6F894DEBF0FBEC1
:10086000CDBFCF91DF911F910F91FF90EF90DF905F
:10087000CF90BF90AF909F908F907F906F905F9040
:100880004F903F902F9008951F920F920FB60F92A6
:1008900011248F939F93839B06C080916000909159
:1008A0006100019705C08091600090916100019600
:1008B000909361008093600080E197E20197F1F7E7
:1008C0009F918F910F900FBE0F901F9018951F92C0
:1008D0000F920FB60F9211248F939F93829B06C0A5
:1008E0008091600090916100019705C08091600047
:1008F000909161000196909361008093600080E187
:1009000097E20197F1F79F918F910F900FBE0F9093
:100910001F9018958FEF87BB11BA82BB80EC8BBFFD
:100920008EE085BF88EC90E060E070E040E050E051
:1009300024E130E036DCF6CF2F923F924F925F9267
:100940006F927F928F929F92AF92BF92CF92DF92DF
:10095000EF92FF920F931F93DF93CF93CDB7DEB744
:100960002E970FB6F894DEBF0FBECDBF0F2EF0E06E
:100970006F2EF0E07F2EF0E08F2EF0E09F2EF02D16
:100980001E861D867C010027F7FC0095102FE9824A
:10099000FA820B831C83CB01AA2797FDA095BA2F5F
:1009A0008D839E83AF83B8877A010027F7FC00957B
:1009B000102FE986FA860B871C871901442437FC1F
:1009C0004094542CC401B301BED220E030E04EEF7D
:1009D00052E456D220E030E040E053E49AD020E0E8
:1009E00030E04FE753E4FDD07B018C0169817A81CF
:1009F0008B819C8191D19B01AC01C801B70140D290
:100A000058D170936F0060936E006D817E818F81ED
:100A1000988582D19B01AC01C801B70131D249D17F
:100A2000709371006093700069857A858B859C85D1
:100A300073D19B01AC01C801B70122D23AD17093A6
:100A400073006093720040DBC201B10165D15B01AC
:100A50006C0120E030E04AEF54E412D27B018C01BB
:100A600020E030E040E85FE3B8D088231CF461E088
:100A700070E01FC0C801B70120E03FEF4FE757E427
:100A8000FBD118169CF4C601B50120E030E040E22D
:100A900051E4F6D113D106C088EC90E00197F1F74C
:100AA0006150704061157105B9F706C0C801B70102
:100AB00005D1CB010197F1F7C401B30129E23CE56F
:100AC0004FE85CE326D03B014C010D851E850F5F8E
:100AD0001F4F1E870D870856114009F073CF2E96C1
:100AE0000FB6F894DEBF0FBECDBFCF91DF911F913F
:100AF0000F91FF90EF90DF90CF90BF90AF909F90BD
:100B00008F907F906F905F904F903F902F900895BF
:100B10005058BB27AA270ED075C166D130F06BD1D3
:100B200020F031F49F3F11F41EF45BC10EF4E09508
:100B3000E7FB51C1E92F77D180F3BA17620773073A
:100B40008407950718F071F49EF58FC10EF4E095B7
:100B50000B2EBA2FA02D0B01B90190010C01CA0177
:100B6000A0011124FF27591B99F0593F50F4503E22
:100B700068F11A16F040A22F232F342F4427585F14
:100B8000F3CF469537952795A795F0405395C9F72C
:100B90007EF41F16BA0B620B730B840BBAF09150E4
:100BA000A1F0FF0FBB1F661F771F881FC2F70EC083
:100BB000BA0F621F731F841F48F487957795679556
:100BC000B795F7959E3F08F0B3CF9395880F08F03F
:100BD0009927EE0F979587950895D9D008F481E06D
:100BE00008950CD00FC107D140F0FED030F021F4B1
:100BF0005F3F19F0F0C0511139C1F3C014D198F31F
:100C00009923C9F35523B1F3951B550BBB27AA278D
:100C100062177307840738F09F5F5F4F220F331FFF
:100C2000441FAA1FA9F333D00E2E3AF0E0E830D0CB
:100C300091505040E695001CCAF729D0FE2F27D0CE
:100C4000660F771F881FBB1F261737074807AB079C
:100C5000B0E809F0BB0B802DBF01FF2793585F4F11
:100C60002AF09E3F510568F0B6C000C15F3FECF32B
:100C7000983EDCF3869577956795B795F7959F5FD6
:100C8000C9F7880F911D9695879597F90895E1E02A
:100C9000660F771F881FBB1F621773078407BA0789
:100CA00020F0621B730B840BBA0BEE1F88F7E095E4
:100CB000089504D06894B111D9C00895BCD088F0CB
:100CC0009F5790F0B92F9927B751A0F0D1F0660F38
:100CD000771F881F991F1AF0BA95C9F712C0B13053
:100CE00081F0C3D0B1E00895C0C0672F782F882766
:100CF000B85F39F0B93FCCF3869577956795B39592
:100D0000D9F73EF490958095709561957F4F8F4F00
:100D10009F4F0895E89409C097FB3EF49095809505
:100D2000709561957F4F8F4F9F4F9923A9F0F92FB1
:100D300096E9BB279395F695879577956795B7952F
:100D4000F111F8CFFAF4BB0F11F460FF1BC06F5F15
:100D50007F4F8F4F9F4F16C0882311F096E911C027
:100D6000772321F09EE8872F762F05C0662371F048
:100D700096E8862F70E060E02AF09A95660F771F5C
:100D8000881FDAF7880F9695879597F90895990F38
:100D90000008550FAA0BE0E8FEEF16161706E80745
:100DA000F907C0F012161306E407F50798F0621B66
:100DB000730B840B950B39F40A2661F0232B242B3B
:100DC000252B21F408950A2609F4A140A6958FEF5A
:100DD000811D811D089597F99F6780E870E060E0AC
:100DE00008959FEF80EC089500240A9416161706C4
:100DF00018060906089500240A941216130614060C
:100E000005060895092E0394000C11F4882352F06E
:100E1000BB0F40F4BF2B11F460FF04C06F5F7F4F26
:100E20008F4F9F4F089557FD9058440F551F59F00D
:100E30005F3F71F04795880F97FB991F61F09F3FC7
:100E400079F087950895121613061406551FF2CFF0
:100E50004695F1DF08C0161617061806991FF1CF40
:100E600086957105610508940895E894BB27662767
:100E70007727CB0197F908958ADF08F48FEF08955B
:100E80000BD0C0CFB1DF28F0B6DF18F0952309F002
:100E9000A2CFA7CF1124EACFC6DFA0F3959FD1F34D
:100EA000950F50E0551F629FF001729FBB27F00D18
:100EB000B11D639FAA27F00DB11DAA1F649F66276D
:100EC000B00DA11D661F829F2227B00DA11D621FBC
:100ED000739FB00DA11D621F839FA00D611D221F76
:100EE000749F3327A00D611D231F849F600D211D5A
:100EF000822F762F6A2F11249F5750408AF0E1F0FD
:100F000088234AF0EE0FFF1FBB1F661F771F881F45
:100F100091505040A9F79E3F510570F05CCFA6CF8D
:100F20005F3FECF3983EDCF3869577956795B79530
:100F3000F795E7959F5FC1F7FE2B880F911D96955A
:100F4000879597F908959F9305D00F9007FCEE5F62
:100F500028C047CF70DFE8F3E894E0E0BB279F5755
:100F6000F0F02AED3FE049EC06C0EE0FBB0F661F24
:100F7000771F881F28F0B23A62077307840728F0AA
:100F8000B25A620B730B840BE3959A9572F7803813
:100F900030F49A95BB0F661F771F881FD2F79048D1
:100FA00013C0EF93E0FF06C0A2EA2AED3FE049EC50
:100FB0005FEBC0DD27DF0F90039401FC9058E6E261
:100FC000F0E00EC09F3F31F0915020F48795779567
:100FD0006795B795880F911D9695879597F9089510
:100FE0009F938F937F936F93FF93EF939B01AC013C
:100FF00047DFEF91FF9105D02F913F914F915F9186
:101000003FCFDF93CF931F930F93FF92EF92DF9227
:101010007B018C01689405C0DA2EEF013DDFFE01F3
:10102000E894A5912591359145915591AEF3EF0145
:1010300081DDFE019701A801DA9479F7DF90EF9046
:10104000FF900F911F91CF91DF91089597FB092E8B
:1010500007260AD077FD04D00CD006D000201AF461
:10106000709561957F4F0895F6F7909581959F4F04
:101070000895AA1BBB1B51E107C0AA1FBB1FA617DF
:10108000B70710F0A61BB70B881F991F5A95A9F731
:0E10900080959095BC01CD010895F894FFCF96
:00000001FF
