:1000000012C019C018C017C016C015C014C013C044
:1000100012C011C010C00FC00EC00DC00CC00BC06C
:100020000AC009C008C011241FBECFE5D4E0DEBF5E
:10003000CDBF15D03CC0E4CF17B88DE886B9089580
:1000400097B1907F982B97B983E08A95F1F7369A0C
:10005000349BFECF349A24B135B1C90108958FE0A5
:1000600087BB8FEF90E097BD86BD81EA8FBD89E0A9
:100070008EBD88EC90E09BBD8ABD82E390E099BD87
:1000800088BD17B88DE886B98FEF81BB80E0D8DFD7
:1000900096958795969587959BBD8ABD81E0D0DF23
:1000A000969587959695879599BD88BDEFCFF894DD
:0200B000FFCF80
:00000001FF
